:020000040000FA
:04000000EFEF0EF020
:10060000003F065B4F666D7D077F6F777C395E79B3
:10061000713F065B4F666D7D077F6F777C395E7932
:1006200071554C4452535841425973494D414749C1
:100630004E4520445241474F4E5300424C41434B9C
:1006400050494E4B00526164696F20310052616421
:10065000696F203200526164696F20330052616417
:10066000696F203400424541544C45530041434496
:0306700043000044
:10067400000E026E180E016E000E046E000E036E64
:1006840010EC09F0000E026E190E016E000E046EDD
:10069400000E036E10EC09F0000E026E1A0E016ECD
:1006A400000E046E000E036E10EC09F0000E026ED4
:1006B4001B0E016E000E046E000E036E10EC09F0AA
:1006C40044EC0EF025EC0EF0E0EC0DF0000E186E8C
:1006D400000E176EE9EC0BF063EC0EF01FC009F08E
:1006E40020C00AF0000E0C6E0A0E0B6E9BEC0CF090
:1006F40009502B6E000E046E0A0E036E1FC001F02B
:1007040020C002F087EC0BF001C009F002C00AF02F
:10071400000E0C6E0A0E0B6E9BEC0CF009502A6E48
:10072400000E046E640E036E1FC001F020C002F0C0
:1007340087EC0BF001C009F002C00AF0000E0C6E49
:100744000A0E0B6E9BEC0CF00950296E030E046E1E
:10075400E80E036E1FC001F020C002F087EC0BF01E
:1007640001C009F002C00AF0000E0C6E0A0E0B6EF6
:100774009BEC0CF00950286E3C0E1F182010D8A4D6
:10078400C6EF03F0C8EF03F0CCEF03F0000E206EC9
:10079400640E1F6EA00E1F182010D8A4D4EF03F00F
:1007A400D6EF03F0DAEF03F0000E206EC80E1F6ED2
:1007B400040E1F1806E12004D8A4E3EF03F0E5EFCC
:1007C40003F0E9EF03F0000E206E000E1F6E20BE52
:1007D400EEEF03F0F0EF03F004EF04F020BEFEEFC1
:1007E40003F0205007E13C0E1F5CD8B0FCEF03F08F
:1007F400FEEF03F004EF04F0000E086E020E076E25
:1008040043EC0CF020BE10EF04F0205009E1640E1C
:100814001F5CD8A010EF04F012EF04F026EF04F0F0
:1008240020BE20EF04F0205007E1A00E1F5CD8B0DA
:100834001EEF04F020EF04F026EF04F0000E086E23
:10084400030E076E43EC0CF020BE32EF04F0205090
:1008540009E19F0E1F5CD8A032EF04F034EF04F0DE
:1008640048EF04F020BE42EF04F02D0E1F5C010E91
:100874002058D8B040EF04F042EF04F048EF04F001
:10088400000E086E010E076E43EC0CF0000E026EB3
:10089400180E016E000E046E000E036EE9EC07F0F4
:1008A400000E026E190E016E000E046E000E036E31
:1008B400E9EC07F0000E026E1A0E016E000E046ED3
:1008C400000E036EE9EC07F0000E026E1B0E016EC3
:1008D400000E046E000E036EE9EC07F0000E086EC5
:1008E400000E076EB9EC0DF0ECEC0AF0800EE0ECB3
:1008F4000EF0C9EF07F0030E2918D8A484EF04F012
:1009040086EF04F08AEF04F0000E206E000E1F6ED6
:10091400ECEC0AF0450E0F6E060E106E8EEC0DF028
:10092400C00EE0EC0EF0650E0F6E060E106E8EEC2F
:100934000DF00DEF05F0110E2B24F66EF76A060E7E
:10094400F7220800F550076E086AB9EC0DF0000EA6
:10095400026E1B0E016E000E046E010E036EE9ECB6
:1009640007F0010E2C6E1F4A202A000E026E140E90
:10097400016E2FEC0DF02AEF05F0110E2A24F66E0D
:10098400F76A060EF7220800F550076E086AB9ECFC
:100994000DF0000E026E1A0E016E000E046E010EB2
:1009A400036EE9EC07F0020E2C6EB5EF04F0110EA5
:1009B4002924F66EF76A060EF7220800F550076E32
:1009C400086AB9EC0DF0000E026E190E016E000EED
:1009D400046E010E036EE9EC07F0030E2C6EB5EF06
:1009E40004F0110E2824F66EF76A060EF7220800AA
:1009F400F550076E086AB9EC0DF0000E026E180E81
:100A0400016E000E046E010E036EE9EC07F0000E99
:100A14002C6EB5EF04F02C50156E166A1650000AB1
:100A2400D8B417EF05F02AEF05F01550000AD8B432
:100A34009DEF04F0010AD8B4BFEF04F0030AD8B460
:100A4400D9EF04F0010AD8B4F3EF04F02AEF05F06B
:100A5400F3EC0CF0520AD8A432EF05F034EF05F0B1
:100A640047EF05F0010EE0EC0EF0000E186E010EDB
:100A7400176E000E206E000E1F6E030E026EE80E3F
:100A8400016E2FEC0DF070EF03F0F3EC0CF04C0A58
:100A9400D8A44FEF05F051EF05F070EF03F0010E0D
:100AA400E0EC0EF0000E186E030E176E3BEF05F02F
:100AB400030E2918D8A461EF05F063EF05F067EF82
:100AC40005F0000E206E000E1F6EECEC0AF04D0EC9
:100AD4000F6E060E106E8EEC0DF0C00EE0EC0EF0F4
:100AE4006D0E0F6E060E106E8EEC0DF0EAEF05F033
:100AF400110E2B24F66EF76A060EF7220800F55045
:100B0400076E086AB9EC0DF0000E026E1B0E016E42
:100B1400000E046E010E036EE9EC07F0010E2C6E5C
:100B24001F4A202A000E026E140E016E2FEC0DF0E7
:100B340007EF06F0110E2A24F66EF76A060EF72266
:100B44000800F550076E086AB9EC0DF0000E026E4D
:100B54001A0E016E000E046E010E036EE9EC07F02E
:100B6400020E2C6E92EF05F0110E2924F66EF76A30
:100B7400060EF7220800F550076E086AB9EC0DF06E
:100B8400000E026E190E016E000E046E010E036E4D
:100B9400E9EC07F0030E2C6E92EF05F0110E2824F9
:100BA400F66EF76A060EF7220800F550076E086A1B
:100BB400B9EC0DF0000E026E180E016E000E046EFC
:100BC400010E036EE9EC07F0000E2C6E92EF05F0B7
:100BD4002C50156E166A1650000AD8B4F4EF05F0BE
:100BE40007EF06F01550000AD8B47AEF05F0010AB1
:100BF400D8B49CEF05F0030AD8B4B6EF05F0010AA7
:100C0400D8B4D0EF05F007EF06F0F3EC0CF0520A7D
:100C1400D8A40FEF06F011EF06F01AEF06F0010E5C
:100C2400E0EC0EF0000E186E020E176E3BEF05F0AE
:100C3400F3EC0CF04C0AD8A422EF06F024EF06F0F3
:100C440070EF03F0010EE0EC0EF0000E186E000ED3
:100C5400176E3BEF05F0030E2918D8A434EF06F005
:100C640036EF06F03AEF06F0000E206E000E1F6E0F
:100C7400ECEC0AF0550E0F6E060E106E8EEC0DF0B5
:100C8400C00EE0EC0EF02B0E0F6E060E106E8EEC06
:100C94000DF0BDEF06F0110E2B24F66EF76A060E6A
:100CA400F7220800F550076E086AB9EC0DF0000E43
:100CB400026E1B0E016E000E046E010E036EE9EC53
:100CC40007F0010E2C6E1F4A202A000E026E140E2D
:100CD400016E2FEC0DF0DAEF06F0110E2A24F66EF9
:100CE400F76A060EF7220800F550076E086AB9EC99
:100CF4000DF0000E026E1A0E016E000E046E010E4F
:100D0400036EE9EC07F0020E2C6E65EF06F0110E8F
:100D14002924F66EF76A060EF7220800F550076ECE
:100D2400086AB9EC0DF0000E026E190E016E000E89
:100D3400046E010E036EE9EC07F0030E2C6E65EFF2
:100D440006F0110E2824F66EF76A060EF722080044
:100D5400F550076E086AB9EC0DF0000E026E180E1D
:100D6400016E000E046E010E036EE9EC07F0000E36
:100D74002C6E65EF06F02C50156E166A1650000A9C
:100D8400D8B4C7EF06F0DAEF06F01550000AD8B46D
:100D94004DEF06F0010AD8B46FEF06F0030AD8B499
:100DA40089EF06F0010AD8B4A3EF06F0DAEF06F0F3
:100DB400F3EC0CF0520AD8A4E2EF06F0E4EF06F0EC
:100DC400E9EF06F0010EE0EC0EF054EF05F0F3EC61
:100DD4000CF04C0AD8A4F1EF06F0F3EF06F070EF34
:100DE40003F0010EE0EC0EF037EF05F0030E2918C6
:100DF400D8A4FFEF06F001EF07F005EF07F0000EAF
:100E0400206E000E1F6EECEC0AF05D0E0F6E060EE7
:100E1400106E8EEC0DF0C00EE0EC0EF03B0E0F6E7B
:100E2400060E106E8EEC0DF088EF07F0110E2B24D9
:100E3400F66EF76A060EF7220800F550076E086A88
:100E4400B9EC0DF0000E026E1B0E016E000E046E66
:100E5400010E036EE9EC07F0010E2C6E1F4A202AE6
:100E6400000E026E140E016E2FEC0DF0A5EF07F0CC
:100E7400110E2A24F66EF76A060EF7220800F550C2
:100E8400076E086AB9EC0DF0000E026E1A0E016EC0
:100E9400000E046E010E036EE9EC07F0020E2C6ED8
:100EA40030EF07F0110E2924F66EF76A060EF722CA
:100EB4000800F550076E086AB9EC0DF0000E026EDA
:100EC400190E016E000E046E010E036EE9EC07F0BC
:100ED400030E2C6E30EF07F0110E2824F66EF76A1D
:100EE400060EF7220800F550076E086AB9EC0DF0FB
:100EF400000E026E180E016E000E046E010E036EDB
:100F0400E9EC07F0000E2C6E30EF07F02C50156E54
:100F1400166A1650000AD8B492EF07F0A5EF07F04E
:100F24001550000AD8B418EF07F0010AD8B43AEF04
:100F340007F0030AD8B454EF07F0010AD8B46EEFEF
:100F440007F0A5EF07F0F3EC0CF0520AD8A4ADEFCC
:100F540007F0AFEF07F0B4EF07F0010EE0EC0EF08E
:100F640027EF06F0F3EC0CF04C0AD8A4BCEF07F022
:100F7400BEEF07F070EF03F0010EE0EC0EF014EF9B
:100F840006F0000E186E000E176E70EF03F017C017
:100F940015F018C016F01650000AD8B4D4EF07F0B4
:100FA400C3EF07F01550000AD8B47DEF04F0010A2E
:100FB400D8B45AEF05F0030AD8B42DEF06F0010AAD
:100FC400D8B4F8EF06F0C3EF07F000EF00F002BE6C
:100FD400F7EF07F0025007E1080E015CD8B0F5EF17
:100FE40007F0F7EF07F021EF08F003500410D8B42E
:100FF400FEEF07F000EF08F010EF08F001C005F075
:10100400010E066E052A09EF08F0D8900636052E63
:1010140007EF08F0065080120FEF09F001C005F049
:10102400010E066E052A19EF08F0D8900636052E33
:1010340017EF08F00650FF0A80160FEF09F002BE02
:101044002FEF08F0025007E1100E015CD8B02DEF2D
:1010540008F02FEF08F05DEF08F0F80E0126FF0E00
:10106400022203500410D8B43AEF08F03CEF08F021
:101074004CEF08F001C005F0010E066E052A45EF9D
:1010840008F0D8900636052E43EF08F0065081127A
:101094000FEF09F001C005F0010E066E052A55EFA9
:1010A40008F0D8900636052E53EF08F00650FF0AD4
:1010B40081160FEF09F002BE6BEF08F0025007E152
:1010C400180E015CD8B069EF08F06BEF08F099EFE7
:1010D40008F0F00E0126FF0E022203500410D8B4CB
:1010E40076EF08F078EF08F088EF08F001C005F01B
:1010F400010E066E052A81EF08F0D8900636052EFB
:101104007FEF08F0065082120FEF09F001C005F0DE
:10111400010E066E052A91EF08F0D8900636052ECA
:101124008FEF08F00650FF0A82160FEF09F002BE97
:10113400A7EF08F0025007E1200E015CD8B0A5EF3C
:1011440008F0A7EF08F0D5EF08F0E80E0126FF0E2F
:10115400022203500410D8B4B2EF08F0B4EF08F040
:10116400C4EF08F001C005F0010E066E052ABDEFBC
:1011740008F0D8900636052EBBEF08F0065083120F
:101184000FEF09F001C005F0010E066E052ACDEF40
:1011940008F0D8900636052ECBEF08F00650FF0A6B
:1011A40083160FEF09F002BEE3EF08F0025007E1E7
:1011B400280E015CD8B0E1EF08F0E3EF08F00FEF80
:1011C40009F0E00E0126FF0E022203500410D8B4E9
:1011D400EEEF08F0F0EF08F000EF09F001C005F0C1
:1011E400010E066E052AF9EF08F0D8900636052E92
:1011F400F7EF08F0065084120FEF09F001C005F074
:10120400010E066E052A09EF09F0D8900636052E60
:1012140007EF09F00650FF0A8416120002BE1EEF03
:1012240009F0025007E1080E015CD8B01CEF09F088
:101234001EEF09F048EF09F003500410D8B425EF6D
:1012440009F027EF09F037EF09F001C005F0010EAE
:10125400066E052A30EF09F0D8900636052E2EEFDB
:1012640009F00650921236EF0AF001C005F0010EA3
:10127400066E052A40EF09F0D8900636052E3EEF9B
:1012840009F00650FF0A921636EF0AF002BE56EF36
:1012940009F0025007E1100E015CD8B054EF09F0D8
:1012A40056EF09F084EF09F003500410D8B45DEF51
:1012B40009F05FEF09F071EF09F001C005F0F80ED5
:1012C4000526010E066E052A6AEF09F0D890063647
:1012D400052E68EF09F00650931236EF0AF001C0AC
:1012E40005F0F80E0526010E066E052A7CEF09F0BE
:1012F400D8900636052E7AEF09F00650FF0A9316A9
:1013040036EF0AF002BE92EF09F0025007E1180E20
:10131400015CD8B090EF09F092EF09F0C0EF09F04A
:1013240003500410D8B499EF09F09BEF09F0ADEF26
:1013340009F001C005F0F00E0526010E066E052A1F
:10134400A6EF09F0D8900636052EA4EF09F0065052
:10135400941236EF0AF001C005F0F00E0526010ED6
:10136400066E052AB8EF09F0D8900636052EB6EFBA
:1013740009F00650FF0A941636EF0AF002BECEEFCB
:1013840009F0025007E1200E015CD8B0CCEF09F05F
:10139400CEEF09F0FCEF09F003500410D8B4D5EFF8
:1013A40009F0D7EF09F0E9EF09F001C005F0E80E04
:1013B4000526010E066E052AE2EF09F0D8900636DE
:1013C400052EE0EF09F00650951236EF0AF001C041
:1013D40005F0E80E0526010E066E052AF4EF09F065
:1013E400D8900636052EF2EF09F00650FF0A95163E
:1013F40036EF0AF002BE0AEF0AF0025007E1280EA7
:10140400015CD8B008EF0AF00AEF0AF036EF0AF0F0
:1014140003500410D8B411EF0AF013EF0AF025EFCB
:101424000AF001C005F0E00E0526010E066E052A3D
:101434001EEF0AF0D8900636052E1CEF0AF006506F
:10144400961236EF0AF001C005F0E00E0526010EF3
:10145400066E052A30EF0AF0D8900636052E2EEFD8
:101464000AF00650FF0A9616120002BE45EF0AF073
:10147400025007E1080E015CD8B043EF0AF045EFD3
:101484000AF059EF0AF001C003F0010E046E032ABA
:101494004EEF0AF0D8900436032E4CEF0AF00450B5
:1014A4008014056E0550016E026AEBEF0AF002BE6D
:1014B40067EF0AF0025007E1100E015CD8B065EF47
:1014C4000AF067EF0AF07DEF0AF001C003F0F80EAE
:1014D4000326010E046E032A72EF0AF0D890043634
:1014E400032E70EF0AF004508114056E0550016E4E
:1014F400026AEBEF0AF002BE8BEF0AF0025007E13A
:10150400180E015CD8B089EF0AF08BEF0AF0A1EF56
:101514000AF001C003F0F00E0326010E046E032A44
:1015240096EF0AF0D8900436032E94EF0AF0045094
:101534008214056E0550016E026AEBEF0AF002BEDA
:10154400AFEF0AF0025007E1200E015CD8B0ADEF16
:101554000AF0AFEF0AF0C5EF0AF001C003F0E80E9D
:101564000326010E046E032ABAEF0AF0D89004365B
:10157400032EB8EF0AF004508314056E0550016E73
:10158400026AEBEF0AF002BED3EF0AF0025007E161
:10159400280E015CD8B0D1EF0AF0D3EF0AF0E9EFDE
:1015A4000AF001C003F0E00E0326010E046E032AC4
:1015B400DEEF0AF0D8900436032EDCEF0AF0045074
:1015C4008414056E0550016E026AEBEF0AF001689F
:1015D40002681200000E1C6E000E1B6E000E0E6ED2
:1015E400000E0D6E0EBE00EF0BF00E5009E1050E5D
:1015F4000D5CD8A000EF0BF002EF0BF004EF0BF042
:1016040065EF0BF00DC00AF0030E0A26010E0B6EF7
:10161400000E0C6E0A2A12EF0BF0D8900B360C3623
:101624000A2E0FEF0BF00BC007F00CC008F0B9EC5A
:101634000DF0000E026E0A0E016E37EC0AF0015036
:101644000210D8B428EF0BF02AEF0BF03DEF0BF0AB
:101654000DC00AF0010E0B6E000E0C6E0A2A36EF56
:101664000BF0D8900B360C360A2E33EF0BF00B50E0
:101674001B120C501C12000E026E090E016E37EC88
:101684000AF001500210D8B44AEF0BF04CEF0BF003
:1016940061EF0BF00DC00AF0050E0A26010E0B6E69
:1016A400000E0C6E0A2A5AEF0BF0D8900B360C364B
:1016B4000A2E57EF0BF00B501B120C501C120D4A44
:1016C4000E2AF4EF0AF01B50191807E11C501A18DF
:1016D400D8A46FEF0BF071EF0BF074EF0BF026064C
:1016E4007AEF0BF0010E266E1BC019F01CC01AF025
:1016F4002650D8A480EF0BF082EF0BF086EF0BF0AE
:1017040019C01DF01AC01EF01200000E066E04BEB1
:1017140090EF0BF08EEF0BF096EF0BF0036C041EC2
:10172400D8B0042A010E066E02BE9DEF0BF09BEFAB
:101734000BF0A3EF0BF0016C021ED8B0022A010ECD
:10174400061A000E086E000E076E03500410D8B47B
:10175400AEEF0BF0B0EF0BF0D8EF0BF0010E056E0F
:10176400B8EF0BF0D89003360436052A04AEBDEF6B
:101774000BF0BFEF0BF0B4EF0BF0D8900736083640
:101784000350015C04500258D8A0CBEF0BF0CDEF0E
:101794000BF0D2EF0BF00350015E0450025A0780A5
:1017A400D89004320332052EBFEF0BF00650D8B4A4
:1017B400DEEF0BF0E0EF0BF0E4EF0BF0076C081E2C
:1017C400D8B0082A07C001F008C002F01200000EC9
:1017D400026E1C0E016E000E046E000E036E10EC01
:1017E40009F0000E026E1D0E016E000E046E000E56
:1017F400036E10EC09F044EC0EF0000E026E0F0EB6
:10180400016E7CEC0EF0000E0B6E000E0A6E030EE1
:10181400BEEC0EF0000E026E050E016E7CEC0EF0B6
:10182400000E0B6E000E0A6E030EBEEC0EF0000EE0
:10183400026EA00E016EFAEC0EF0000E0B6E000E9E
:101844000A6E030EBEEC0EF0000E026EA00E016EC8
:10185400FAEC0EF0000E0B6E000E0A6E020EBEECD9
:101864000EF0000E026E0A0E016E7CEC0EF0280ED5
:10187400E0EC0EF00C0EE0EC0EF0010EE0EC0EF0DD
:10188400120007A048EF0CF04AEF0CF056EF0CF0F2
:10189400000E026E180E016E000E046E010E036E31
:1018A400E9EC07F060EF0CF0000E026E180E016E0A
:1018B400000E046E000E036EE9EC07F007A265EF5C
:1018C4000CF067EF0CF073EF0CF0000E026E190EC3
:1018D400016E000E046E010E036EE9EC07F07DEF5D
:1018E4000CF0000E026E190E016E000E046E000E56
:1018F400036EE9EC07F007A482EF0CF084EF0CF020
:1019040090EF0CF0000E026E1A0E016E000E046EC3
:10191400010E036EE9EC07F09AEF0CF0000E026E74
:101924001A0E016E000E046E000E036EE9EC07F051
:101934001200000E0E6E0ABEA4EF0CF0A2EF0CF023
:10194400AAEF0CF0096C0A1ED8B00A2A010E0E6E1A
:101954000CBEB1EF0CF0AFEF0CF0B5EF0CF00B6C6C
:101964000C1ED8B00C2A0B500C10D8B4BCEF0CF0E1
:10197400BEEF0CF0E2EF0CF0010E0D6EC6EF0CF0B2
:10198400D8900B360C360D2A0CAECBEF0CF0CDEF05
:101994000CF0C2EF0CF00B50095C0C500A58D8A0A4
:1019A400D6EF0CF0D8EF0CF0DCEF0CF00B50095E26
:1019B4000C500A5AD8900C320B320D2ECDEF0CF08D
:1019C4000E50D8B4E8EF0CF0EAEF0CF0EEEF0CF0A8
:1019D400096C0A1ED8B00A2A09C009F00AC00AF024
:1019E4001200000E056E000E046E04C001F0010E1C
:1019F400026E000E036E012A03EF0DF0D89002363A
:101A04000336012E00EF0DF01D5002161E50031672
:101A140002500310D8B411EF0DF013EF0DF01DEFC9
:101A24000DF0210E0424F66E060E0520F76E080054
:101A3400F5502EEF0DF0044A052A05BE2BEF0DF0EC
:101A4400055009E10A0E045CD8A02BEF0DF02DEF30
:101A54000DF0F7EF0CF0000E1200000E046E000EF5
:101A6400036E55EF0DF0000E056E280E05643DEF74
:101A74000DF03FEF0DF041EF0DF053EF0DF0000EC0
:101A8400066E020E066449EF0DF04BEF0DF04DEFBC
:101A94000DF050EF0DF0062A43EF0DF0052A37EF55
:101AA4000DF0034A042A0150035C02500458D8A0E4
:101AB4005EEF0DF060EF0DF035EF0DF012000D6EDE
:101AC4000DC00CF00C3A0F0E0C160C50076E086A81
:101AD400B9EC0DF0000E026E1D0E016E0AC003F08B
:101AE4000BC004F0E9EC07F004EC0EF00DC00CF0B0
:101AF4000F0E0C160C50076E086AB9EC0DF0000EB0
:101B0400026E1D0E016E0AC003F00BC004F0E9EC76
:101B140007F004EC0EF01200000E146E000E136EAB
:101B2400A4EF0DF013500F24116E14501020126EF8
:101B340011C0F6FF12C0F7FF0800F550D1EC0EF00B
:101B4400134A142A13500F24116E14501020126ECD
:101B540011C0F6FF12C0F7FF0800F5500009D8A421
:101B6400B6EF0DF0B8EF0DF094EF0DF01200000E8B
:101B7400026E080E016E000E046E000E036EE9EC98
:101B840007F0000E096E000E026E1E0E016E800E2E
:101B94000714036E046AE9EC07F0A9EC0EF0D89080
:101BA40007360836092A070E0964DBEF0DF0DDEF6E
:101BB4000DF0C5EF0DF094EC0EF01200000E026E65
:101BC400000E016E000E046E010E036E10EC09F09F
:101BD400000E026E010E016E000E046E010E036E05
:101BE40010EC09F0000E026E020E016E000E046E7F
:101BF400010E036E10EC09F0C2800C0EC16EAA0E29
:101C0400C06E1200000E026E1C0E016E000E046EF9
:101C1400010E036EE9EC07F0000E026E050E016E74
:101C2400FAEC0EF0000E026E1C0E016E000E046E35
:101C3400000E036EE9EC07F0000E026E050E016E55
:101C4400FAEC0EF01200000E026E180E016E000E79
:101C5400046E000E036E10EC09F0000E026E190EF5
:101C6400016E000E046E000E036E10EC09F0000EFF
:101C7400026E1A0E016E000E046E000E036E10EC5E
:101C840009F01200000E026E1F0E016E000E046EAB
:101C9400000E036E10EC09F0000E026E080E016EC9
:101CA400000E046E000E036E10EC09F0000E026EBE
:101CB4001E0E016E000E046E000E036E10EC09F091
:101CC400120044EC0EF0000E026E0A0E016E000EBD
:101CD400046E010E036E10EC09F0000E026E090E84
:101CE400016E000E046E010E036E10EC09F00C0E72
:101CF400C16E1200000E056E000E046E84EF0EF02D
:101D0400044A052A0150045C0550800A036E0250FF
:101D1400800A0358D8A091EF0EF093EF0EF082EFF3
:101D24000EF01200000E026E1F0E016E000E046E05
:101D3400010E036EE9EC07F0000E026E1F0E016E39
:101D4400000E046E000E036EE9EC07F01200000EA4
:101D5400026E080E016E000E046E010E036EE9ECB5
:101D640007F0000E026E080E016E000E046E000EE7
:101D7400036EE9EC07F012000C6E0CC007F0086A61
:101D8400B9EC0DF0000E026E1D0E016E0AC003F0D8
:101D94000BC004F0E9EC07F004EC0EF012000E6E38
:101DA400000E0B6E010E0A6E0E5061EC0DF0000E6B
:101DB400026E500E016EFAEC0EF012000E6E000E62
:101DC4000B6E000E0A6E0E5061EC0DF0000E026EEA
:101DD400020E016E7CEC0EF0120000EE19F0140EEF
:101DE400EE6AE806FDE1000EF86E00013AEF03F03A
:021DF4001200DB
:020000040020DA
:08000000FFFFFFFFFFFFFFFF00
:020000040030CA
:0E000000FF027100FF8380FF0FC00FE00F4072
:00000001FF
